:100000000C94EA000C9412010C9412010C9412014D
:100010000C9412010C9412010C9412010C94120114
:100020000C9412010C9412010C94EC050C945E06D5
:100030000C9412010C9412010C9412010C941201F4
:100040000C9412010C9412010C9412010C941201E4
:100050000C9412010C9412010C9412010C94A20540
:100060000C9412010C9412010C9412010C941201C4
:100070000C9412010C9412010C9412010C941201B4
:100080000C9412010C9412010C9412010C941201A4
:100090000C9412010C9412010C9412010C94120194
:1000A0000C9412010C9412010C9412015D02600276
:1000B0004F025302570281028102810264026802E8
:1000C0006C027202760281027C0205A84CCDB2D489
:1000D0004EB93836A9020C50B9918688083CA6AAB8
:1000E000AA2ABE000000803F080B000202020100A5
:1000F000090400000102020000052400100105248B
:1001000001010104240206052406000107058103FC
:1001100010004009040100020A0000000705020265
:100120004000000705830240000004030904120197
:100130000002EF020140412341800001010203015E
:1001400041726475696E6F204C4C43004172647556
:10015000696E6F2059756E000000000200090F00E3
:1001600000030401000C000000000000000000007B
:100170000000000000000000000000250028002B07
:10018000002E00310000000000240027002A002D6E
:100190000030000404040404030405020202020403
:1001A0000302020202060606060606040402020212
:1001B0000404040802011040804010204080408068
:1001C00008020401804020100201108010204040ED
:1001D00020008E0811241FBECFEFDAE0DEBFCDBFB6
:1001E00011E0A0E0B1E0ECE8F9E102C005900D9269
:1001F000A632B107D9F721E0A6E2B1E001C01D9215
:10020000A53FB207E1F710E0CAEED0E004C02197A5
:10021000FE010E94B90CC93ED107C9F70E94EE0841
:100220000C94C40C0C94000090E0FC01EE54FE4FC2
:100230002491FC01ED56FE4F8491882399F090E0C3
:10024000880F991FFC01EB57FE4FA591B491FC015B
:10025000E958FE4F859194918FB7F894EC91E22B79
:10026000EC938FBF0895FC0180914401811103C07C
:100270008FEF9FEF08959FB7F89482E08093E90095
:100280002091F20030E01216130614F421E030E061
:100290002115310559F0289884E680934301809117
:1002A000F10080838091F200882319F09FBFC9017B
:1002B00008958BE68093E800F9CF2FB7F89483E098
:1002C0008093E9009091E800892F807295FF04C027
:1002D0009091F20080E4891B2FBF0895CF92DF92A6
:1002E000EF92FF920F931F93CF93DF936C017A01EC
:1002F0008B01C0E0D0E0CE15DF0589F0D8016D910B
:100300008D01D601ED91FC910190F081E02DC601A7
:100310000995892B11F47E0102C02196ECCFC7010B
:10032000DF91CF911F910F91FF90EF90DF90CF90D1
:10033000089580913B0181110DC082E080933701C7
:1003400084E08093380110923A011092390181E0E3
:1003500080933B0187E391E00895CF93DF931F9251
:10036000CDB7DEB76983DC01ED91FC910280F381AA
:10037000E02D41E050E0BE016F5F7F4F09950F9087
:10038000DF91CF91089583E08093E9008091F2009E
:10039000882319F08AE38093E80008950E945D01A4
:1003A00090E00895CF93DF931F92CDB7DEB7FC01A5
:1003B0008485958597FD05C02FEF3FEF358724870E
:1003C0000BC0CE0101960E943301019719F4898177
:1003D00090E002C08FEF9FEF0F90DF91CF910895D3
:1003E0000F931F93CF93DF931F92CDB7DEB78C018E
:1003F000FC018485958597FF0EC0CE0101960E9471
:100400003301019719F4298130E002C02FEF3FEF4B
:10041000F80135872487F801848595850F90DF9151
:10042000CF911F910F910895FC018485958597FDCB
:100430000BC09FB7F89482E08093E9008091F200AE
:100440009FBF90E0019608959FB7F89482E0809353
:10045000E9008091F2009FBF90E00895089580E048
:1004600090E00895362F90E0FC01E85AFE4F449149
:10047000FC01EE54FE4F2491FC01ED56FE4F849199
:10048000882309F451C04423E1F150E0FA01319787
:10049000EF30F105B0F5EA5AFF4F0C94B90C90918A
:1004A00080009F7707C0909180009F7D03C090914E
:1004B0008000977F9093800024C094B59F7702C0FE
:1004C00094B59F7D94BD1DC0909190009F7707C00B
:1004D000909190009F7D03C090919000977F9093A2
:1004E00090000FC09091C0009F7703C09091C00012
:1004F0009F7D9093C00005C09091C200977F90931C
:10050000C200E82FF0E0EE0FFF1FE958FE4FA59163
:10051000B4918FB7F894EC91311103C020952E233C
:1005200001C02E2B2C938FBF08953FB7F894809174
:10053000310190913201A0913301B091340126B57F
:10054000A89B05C02F3F19F00196A11DB11D3FBF0B
:10055000BA2FA92F982F8827820F911DA11DB11D99
:10056000BC01CD0142E0660F771F881F991F4A9595
:10057000D1F708958F929F92AF92BF92CF92DF9260
:10058000EF92FF926B017C010E9495024B015C018E
:10059000C114D104E104F104F1F00E949502DC01E0
:1005A000CB0188199909AA09BB09883E9340A10586
:1005B000B10570F321E0C21AD108E108F10888EE14
:1005C000880E83E0981EA11CB11CC114D104E10463
:1005D000F10419F7DDCFFF90EF90DF90CF90BF903F
:1005E000AF909F908F9008958F929F92AF92BF92FD
:1005F000CF92DF92EF92FF920F931F93CF93DF93EF
:100600005C016B017A0180910B01882309F45BC0C6
:1006100080914401882309F456C08091360180FFFF
:1006200005C08091E00082608093E000E70110E067
:100630000AEF83E0882E9AE3992E2097D9F10E9441
:100640005D0181110AC0015009F43DC061E070E014
:1006500080E090E00E94BA02F0CF282F30E0C2176D
:10066000D3070CF48C2F4FB7F8948092E900909147
:10067000E80095FF1DC0282F30E0C21BD30BF60108
:10068000982F915020F081918093F100FACFC20E03
:10069000D31E112319F09092E80009C08091E80060
:1006A00085FD06C09092E80011E0209709F010E067
:1006B0004FBFC3CF1111C3CF5D9884E6809335013E
:1006C0001E141F0444F081E090E0F50193838283BF
:1006D00080E090E001C0C701DF91CF911F910F91A1
:1006E000FF90EF90DF90CF90BF90AF909F908F9052
:1006F00008954091280150912901209126013091BF
:10070000270142175307B4F49091E8009570E1F384
:100710009091E80092FD19C08093F100809128012A
:100720009091290101968F739927892B19F48EEFE7
:100730008093E8008091280190912901019690937F
:1007400029018093280181E0089580E00895CF92E7
:10075000DF92EF92FF920F931F93CF93DF931F923D
:10076000CDB7DEB7182F062FE42E862F880F8E5FA9
:1007700099830E94790383E00E947903F12EC12EB0
:100780009981D92E8C2D8F19801798F4F601E7FEE8
:1007900002C0849101C080810E947903182F80E0FB
:1007A0000E9479038123FFEFCF1ADF0A8111EACF7C
:1007B00001C081E00F90DF91CF911F910F91FF90C9
:1007C000EF90DF90CF900895DF92EF92FF920F931A
:1007D0001F93CF93DF93D82E8A017B01E40EF51E81
:1007E000EB01CE15DF0571F0D7FE03C0FE01849149
:1007F00001C088810E94790321968111F2CF8FEF89
:100800009FEF01C0C801DF91CF911F910F91FF9021
:10081000EF90DF9008950F931F93CF93DF931F9274
:10082000CDB7DEB782E0898342E450E068EE70E045
:1008300080E80E94E4030E949901DC0112960D9168
:100840001C9113970115110569F0D801ED91FC91E8
:100850000280F381E02DBE016F5F7F4FC8010995D3
:1008600097FF07C089810F90DF91CF911F910F9162
:100870000895F80100851185E5CF615030F0209191
:10088000F100FC0120830196F8CF289884E680933C
:10089000430108950E94BF0C2F923F924F925F92A6
:1008A0006F927F928F929F92AF92BF92CF92DF9280
:1008B000EF92FF920F931F93CF93DF9300D0CDB7AA
:1008C000DEB78C0149832A83660F771FF801EA5A45
:1008D000FF4FE080F180EE0CFF1CF801CF01801B80
:1008E000910B8E159F0514F41192F8CF8981F801B0
:1008F000E60FF71F81838A818083580184E5A80E63
:10090000B11C60E0F50180810E943202E00EF11E10
:100910004801F2E58F0E911C380180E5680E711CCC
:10092000C701801B910B1816190624F5F701C29018
:100930007F01F4013080F301208087E0482E512CA4
:10094000D12CB601042C02C0759567950A94E2F784
:1009500061707727822D0E94320261E0832D0E9410
:10096000320260E0832D0E943202F1E04F1A5108FA
:1009700040F7D6CF61E0F50180810F900F90DF91B5
:10098000CF911F910F91FF90EF90DF90CF90BF908C
:10099000AF909F908F907F906F905F904F903F901F
:1009A0002F900C943202CF92DF92EF92FF920F932E
:1009B0001F93CF93DF9377FD23C0FC01EA5AFF4FCB
:1009C0002081318162177307DCF4EB017C016B013C
:1009D00083E0CC0CDD1C8A95E1F701E010E0F80122
:1009E000EC0DFD1DEE0DFF1D178620E0402FBE0112
:1009F000C7010E944C040F5F1F4F0930110579F7A2
:100A0000DF91CF911F910F91FF90EF90DF90CF90EA
:100A100008954F925F926F927F928F929F92BF92B2
:100A2000CF92DF92EF92FF920F931F93CF93DF93BA
:100A30001F92CDB7DEB77C01B62E2C0180E5480EA3
:100A4000511CF201608371833701F2E56F0E711C56
:100A5000F301518340834701F4E58F0E911CF401AB
:100A600031832083C8010197089710F008E010E057
:100A70006701F6E5CF0ED11CF601118300838B2DA3
:100A800079830E941401F30180810E941401F40112
:100A900080810E94140161E0F40180810E94320291
:100AA000F201B08279817183F70170961192E41599
:100AB000F505E1F700E010E0F6018081918108176B
:100AC00019077CF520E04FE0B801C7010E944C04F3
:100AD00017FD0CC0F601808191810817190734F4C5
:100AE00027E04BE0B801C7010E944C0420E049E038
:100AF000B801C7010E944C04B801C7010E94D30489
:100B000017FD0CC0F601808191810817190734F494
:100B100020E04CE0B801C7010E944C040F5F1F4F5A
:100B2000CBCF0F90DF91CF911F910F91FF90EF905E
:100B3000DF90CF90BF909F908F907F906F905F904D
:100B40004F9008951F920F920FB60F9211242F937A
:100B50003F938F939F93AF93BF9380912D0190917B
:100B60002E01A0912F01B091300130912C0123E092
:100B7000230F2D3720F40196A11DB11D05C026E8D5
:100B8000230F0296A11DB11D20932C0180932D01EE
:100B900090932E01A0932F01B093300180913101E9
:100BA00090913201A0913301B09134010196A11DC1
:100BB000B11D8093310190933201A0933301B09322
:100BC0003401BF91AF919F918F913F912F910F90E1
:100BD0000FBE0F901F9018951F920F920FB60F9295
:100BE00011248F939F938091E1009091E100937F76
:100BF0009093E10083FF0FC01092E90091E0909381
:100C0000EB001092EC0092E39093ED0010924401FF
:100C100098E09093F00082FF20C093E09093E90069
:100C20009091F200992319F09AE39093E800909143
:100C30003501992339F09091350191509093350108
:100C4000992389F190914301992339F090914301BF
:100C5000915090934301992341F184FF10C08091FA
:100C6000E2008E7E81608093E2008091E1008F7EC1
:100C70008093E100809136018E7E806111C080FFFB
:100C800016C08091E2008E7E80618093E2008091A8
:100C9000E1008E7E8093E100809136018E7E81603E
:100CA0008093360104C05D9ACDCF289AD6CF9F910C
:100CB0008F910F900FBE0F901F9018951F920F925B
:100CC0000FB60F921124CF92DF92EF92FF920F9303
:100CD0001F932F933F934F935F936F937F938F93C4
:100CE0009F93AF93BF93EF93FF93CF93DF93CDB7D2
:100CF000DEB76C97DEBFCDBF1092E9008091E800AF
:100D000083FFEDC168E0CE0145960E943D0482EF6D
:100D10008093E8008D8987FF05C09091E80090FFDF
:100D2000FCCF03C09EEF9093E800982F907609F0D7
:100D3000C6C09E892F89188D91110CC0803829F466
:100D400080912B018093F10002C01092F10010926B
:100D5000F10048C1422F50E0512B913051F48111E4
:100D600041C14130510509F03DC180912B018D7F7A
:100D70000BC0933061F4811135C14130510509F048
:100D800031C180912B01826080932B012BC1953062
:100D900041F48091E80080FFFCCF20682093E300BD
:100DA00021C1963009F05FC0EB8CFC8C1092E900F9
:100DB0001092290110922801123091F5109227010A
:100DC000109226010E940B0499E0BE016F5F7F4FD5
:100DD000DB01E92F1D92EA95E9F799831A8391E0E7
:100DE0009E8390EA98879AEF998720912801309105
:100DF0002901275F3F4F3C832B838D831092E900AD
:100E00001092290110922801F0922701E092260108
:100E100049E050E080E00E94E4030E940B04E2C03D
:100E2000F0922701E09226010E949901DC011296BE
:100E3000ED90FC901397E114F10409F4C0C0D701C0
:100E4000ED91FC910480F581E02DBE016B5E7F4F3A
:100E5000C7010995009719F00CF0C4C0C7C0F7018D
:100E6000E084F184E8CF973009F4C0C0983021F4D1
:100E700081E08093F100B6C0993009F0B3C083706F
:100E800009F0B4C0EDE0F1E081E021E036E39081CB
:100E9000992361F08093E9002093EB009191909366
:100EA000EC003093ED008F5F873089F78EE78093F9
:100EB000EA001092EA008F898093440193C08B8DE1
:100EC0009C8D1092E90010922901109228019093B4
:100ED000270180932601898D811156C08E899D89B5
:100EE000913A59F4813209F081C047E050E064E062
:100EF00071E080E00E94E40375C0913209F076C091
:100F0000833289F4888D90E0982F88272F89822B4F
:100F1000A0E0B0E08093000190930101A093020152
:100F2000B09303015FC0803269F48091E80082FFD2
:100F3000FCCF67E084E091E00E943D048BEF80935A
:100F4000E80006C0823209F04DC08F8980930B0102
:100F500080912A01882319F0EEEFFAE002C0E0E068
:100F6000F8E08091040190910501A0910601B091F3
:100F70000701803B9440A105B10509F07BC0809139
:100F80000B0180FF93C076C00E949901DC0112968C
:100F90000D911C9113970115110541F1D801ED91A7
:100FA000FC910190F081E02DBE016B5E7F4FC80186
:100FB0000995811117C0F80100851185ECCF11301A
:100FC00009F44EC0133091F48F89882309F445C089
:100FD000823081F440E86BE08CE491E00E94A7034A
:100FE000882321F08EEF8093E80079C081E280931E
:100FF000EB0075C0813029F440E86BE080E491E0BB
:10100000EDCF833099F70E949901DC011296ED90A3
:10101000FC9013978E010F5F1F4F6801E114F104DC
:1010200079F0D701ED91FC910680F781E02DB801B0
:10103000C7010995080F111DF701E084F184EECF77
:10104000D8011C92F60101900020E9F73197BF0109
:101050006C197D0940E0C601C1CF6AE271E002C0AF
:101060006EE271E06115710509F2FB01449150E0F7
:1010700080E840CF0FB6F894A89580916000886111
:1010800080936000109260000FBEA895EE3F2AE0AA
:10109000F20739F08091FE0A9091FF0A91838083D4
:1010A000A1CF1092FF0A1092FE0A9CCFEE3F8AE079
:1010B000F80731F0808191819093FF0A8093FE0AB6
:1010C00087E797E7918380839BE088E10FB6F894E8
:1010D000A895809360000FBE9093600083CF6C96BC
:1010E0000FB6F894DEBF0FBECDBFDF91CF91FF9159
:1010F000EF91BF91AF919F918F917F916F915F9190
:101100004F913F912F911F910F91FF90EF90DF90A2
:10111000CF900F900FBE0F901F9018950F931F93B5
:10112000CF93DF93CDB7DEB7C855D1090FB6F8948A
:10113000DEBF0FBECDBFE5E4F1E01382128288EE80
:1011400093E0A0E0B0E084839583A683B78387E132
:1011500091E0918380838FEF9FEF9587848700E0F4
:1011600010E020E030E040E050E060E070E08DE929
:1011700091E00E940905E5E9F1E087E090E09183C4
:10118000808386E090E09383828385E090E095837E
:10119000848384E090E09783868304E010E025E078
:1011A00030E046E050E067E070E0CE0101960E943A
:1011B000090588E5FE013196ADE9B1E001900D9297
:1011C0008A95E1F7C85ADF4F0FB6F894DEBF0FBE1D
:1011D000CDBFDF91CF911F910F910895789484B581
:1011E000826084BD84B5816084BD85B5826085BD23
:1011F00085B5816085BD80916E00816080936E00B1
:1012000010928100809181008260809381008091A2
:101210008100816080938100809180008160809353
:101220008000809191008260809391008091910074
:101230008160809391008091900081608093900004
:101240008091C10084608093C1008091C100826060
:101250008093C1008091C10081608093C100809122
:10126000C30081608093C3008091C000826080933E
:10127000C0008091C20081608093C20080917A009A
:10128000846080937A0080917A00826080937A00F3
:1012900080917A00816080937A0080917A008068E2
:1012A00080937A001092440110922B011092360123
:1012B0008091D70081608093D70080EA8093D80026
:1012C00089B5806189BD89B5826089BD09B400FE98
:1012D000FDCF61E070E080E090E00E94BA02809172
:1012E000D8008F7C80618093D8008091E000807F5F
:1012F0008093E0008091E1008E7E8093E1008DE09C
:101300008093E200559A209AEEEFFFE78591949141
:101310008B3F9C4D19F481E080932A010091F301E9
:101320001091F401C0E0D0E0C017D1072CF5D7FD33
:101330001CC08091F3019091F401C817D9073CF4C7
:1013400021E04CE0BE018DE991E00E944C048091C7
:10135000F3019091F401C817D9073CF425E04AE065
:10136000BE018DE991E00E944C04BE018DE991E03F
:101370000E94D3042196D8CFC12CD12C760127E02E
:10138000222E312C00E810E0A090F301B090F4017F
:10139000C0E0D0E0CA15DB053CF4BE018DE991E068
:1013A0000E94D3042196F6CFC0E0D0E0BE010D2EFE
:1013B000000C880B990B0E94EE0AA70196010E946F
:1013C000450A0E94B10A2B013C01BE0193E07595CC
:1013D00067959A95E1F7072E000C880B990B0E94F0
:1013E000EE0A0E94290B0E94B60A4B015C0177FDB0
:1013F00035C02091F3013091F4016217730774F541
:1014000020E030E040EA50E4C301B2010E94450A06
:101410000E94B60A6830710508F5F40183E0EE0F0A
:10142000FF1F8A95E1F7E60FF71FEB55FE4F9E0170
:1014300027703327A101421B530B9A01A80102C058
:10144000559547952A95E2F72085242B208741E082
:10145000460FB4018DE991E00E944C042196C03200
:10146000D10509F0A3CF65E070E080E090E00E9434
:10147000BA0220E030E040E05FE3C701B6010E941D
:10148000450A6B017C0180CF5058BB27AA270E94D8
:101490005C0A0C94AB0B0E94720B38F00E94790B23
:1014A00020F039F49F3F19F426F40C946F0B0EF4DE
:1014B000E095E7FB0C94400BE92F0E94D00B58F30A
:1014C000BA17620773078407950720F079F4A6F529
:1014D0000C940A0C0EF4E0950B2EBA2FA02D0B01E4
:1014E000B90190010C01CA01A0011124FF27591B69
:1014F00099F0593F50F4503E68F11A16F040A22F6F
:10150000232F342F4427585FF3CF469537952795DF
:10151000A795F0405395C9F77EF41F16BA0B620BDE
:10152000730B840BBAF09150A1F0FF0FBB1F661F25
:10153000771F881FC2F70EC0BA0F621F731F841F68
:1015400048F4879577956795B795F7959E3F08F08E
:10155000B0CF9395880F08F09927EE0F9795879550
:1015600008950E94820BE3950C94BC0B0E94BD0A67
:101570006894B1110C940B0C08950E94D80B88F05C
:101580009F5798F0B92F9927B751B0F0E1F0660F47
:10159000771F881F991F1AF0BA95C9F714C0B13088
:1015A00091F00E940A0CB1E008950C940A0C672F88
:1015B000782F8827B85F39F0B93FCCF386957795B7
:1015C0006795B395D9F73EF49095809570956195A0
:1015D0007F4F8F4F9F4F0895E89409C097FB3EF4CB
:1015E00090958095709561957F4F8F4F9F4F992370
:1015F000A9F0F92F96E9BB279395F69587957795EE
:101600006795B795F111F8CFFAF4BB0F11F460FFAD
:101610001BC06F5F7F4F8F4F9F4F16C0882311F005
:1016200096E911C0772321F09EE8872F762F05C019
:10163000662371F096E8862F70E060E02AF09A95B4
:10164000660F771F881FDAF7880F9695879597F9A9
:1016500008950E94F20B90F09F3748F4911116F014
:101660000C940B0C60E070E080E89FEB089526F48A
:101670001B16611D711D811D0C94460B0C94610B92
:1016800097F99F6780E870E060E00895882371F41F
:10169000772321F09850872B762F07C0662311F40B
:1016A00099270DC09051862B70E060E02AF09A9542
:1016B000660F771F881FDAF7880F9695879597F939
:1016C00008959F3F31F0915020F487957795679565
:1016D000B795880F911D9695879597F908959FEF77
:1016E00080EC089500240A941616170618060906B9
:1016F000089500240A941216130614060506089588
:101700000C946F0B0E94D80BD8F3E894E0E0BB2751
:101710009F57F0F02AED3FE049EC06C0EE0FBB0FFB
:10172000661F771F881F28F0B23A62077307840785
:1017300028F0B25A620B730B840BE3959A9572F7FB
:10174000803830F49A95BB0F661F771F881FD2F739
:1017500090480C94630B092E0394000C11F4882319
:1017600052F0BB0F40F4BF2B11F460FF04C06F5F59
:101770007F4F8F4F9F4F0895EF93E0FF07C0A2EA7E
:101780002AED3FE049EC5FEB0E945C0A0E94AB0B44
:101790000F90039401FC9058EAECF0E00C94110CCB
:1017A00057FD9058440F551F59F05F3F71F0479512
:1017B000880F97FB991F61F09F3F79F087950895F7
:1017C000121613061406551FF2CF4695F1DF08C016
:1017D000161617061806991FF1CF86957105610533
:1017E000089408950E94D80BA0F0BEE7B91788F4BA
:1017F000BB279F3860F41616B11D672F782F8827F6
:10180000985FF7CF869577956795B11D9395963933
:10181000C8F30895E894BB2766277727CB0197F98B
:1018200008959F938F937F936F93FF93EF939B0103
:10183000AC010E94250CEF91FF910E94920C2F9118
:101840003F914F915F910C94250C0E94380C0C94A1
:10185000AB0B0E94720B38F00E94790B20F095239D
:1018600011F00C94400B0C946F0B11240C940B0C86
:101870000E94D00B70F3959FC1F3950F50E0551F58
:10188000629FF001729FBB27F00DB11D639FAA27D5
:10189000F00DB11DAA1F649F6627B00DA11D661F24
:1018A000829F2227B00DA11D621F739FB00DA11D45
:1018B000621F839FA00D611D221F749F3327A00DFF
:1018C000611D231F849F600D211D822F762F6A2F9B
:1018D00011249F5750409AF0F1F088234AF0EE0F00
:1018E000FF1FBB1F661F771F881F91505040A9F72D
:1018F0009E3F510580F00C94400B0C940B0C5F3F05
:10190000E4F3983ED4F3869577956795B795F79568
:10191000E7959F5FC1F7FE2B880F911D96958795E0
:1019200097F90895DF93CF931F930F93FF92EF9250
:10193000DF927B018C01689406C0DA2EEF010E94D1
:10194000380CFE01E894A59125913591459155916A
:10195000A6F3EF010E945C0AFE019701A801DA9448
:1019600069F7DF90EF90FF900F911F91CF91DF917A
:101970000895EE0FFF1F0590F491E02D099481E08A
:0C19800090E0F8940C94C40CF894FFCF95
:10198C00FFFFFFFF00E100000000000000C18081AC
:10199C0000000000000000AD01F402CE01C30114F0
:0619AC0002D201F001006F
:00000001FF
